:1000000038C052C051C050C04FC04EC04DC04CC08F
:1000100046C24AC0B3C248C047C046C045C000003F
:100020003A014703AD07070C0D11B716EF1C9423D7
:10003000F52ACB310D3ABF405846FB4B8E50035545
:100040001359D25BC85EDA614464A566F96A9E6D95
:10005000286FA770D17100050A0F14191E23282DCF
:1000600032373C41464B50555A5F64696E78828CFA
:1000700096A011241FBECFE5D2E0DEBFCDBF10E0B9
:10008000A0E6B0E0EAEFF6E002C005900D92A436DB
:10009000B107D9F720E0A4E6B0E001C01D92A8376F
:1000A000B207E1F7BAD027C3ABCF80E090E0F5D23A
:1000B000809362008F3F29F464E080E090E0FAD200
:1000C000F4CF81E090E0E9D2809361008F3F29F482
:1000D00069E181E090E0EED2F4CF0895DF92EF92F3
:1000E000FF920F931F93CF93DF937C018CD1182F36
:1000F0008AE0D82ED10E8D2D40D1C4E7D0E099836F
:10010000888305E0010F802F38D19B838A83612F7C
:1001100080E190E0CFD26D2D81E190E0CBD2602FD5
:1001200082E190E0C7D2B70186E090E0D1D2688149
:10013000798182E090E0CCD26A817B8184E090E09A
:10014000DF91CF911F910F91FF90EF90DF90C0C290
:1001500082E090E0AAD2909375008093740084E0CE
:1001600090E0A3D29093770080937600019619F4E3
:1001700080E090E0B3CF089520916000222319F031
:10018000109260000CC02091640030916500821BC9
:10019000930B9695879596958795820F931F9093CD
:1001A000650080936400809166008823C1F080918F
:1001B0007100909172002091760030917700821743
:1001C000930728F58091670090916100891720F4CA
:1001D0008F5F809367000895109266001BC0809126
:1001E0007100909172002091740030917500821717
:1001F000930780F08091680090916200891720F445
:100200008F5F80936800089581E08093660010926C
:100210006700089510926800089514BEA8959EE0A6
:1002200088E10FB6F894A89581BD0FBE91BDA89541
:1002300080E886BD16BC87E087BB8CE088BBC19890
:10024000C29A91D132DF20D183DF7894D0E0C0E030
:1002500088E0882E912CA12CB12CA8958091730058
:1002600080FF7DC0809171009091720085DF809148
:100270006600882319F0C298C19A02C0C198C29A38
:100280009FB7F894809173008E7F809373009FBF17
:10029000B39911C081E08C0FC83120F0C09AD1E031
:1002A000C8E1DBCF9091730092FF02C0C09A01C0F9
:1002B000C098C82FD2CFDD2309F44EC0C090710082
:1002C000D0907200E12CF12CC09AC0E2A8958091E8
:1002D000730081FFFCCFD6D08091730080FFFCCFEC
:1002E000A8956091710070917200CB01A0E0B0E020
:1002F000BC01CD016C197D098E099F09A5019401EE
:100300008ED1C20ED31EE41EF51E9FB7F8948091C5
:1003100073008C7F809373009FBFC150B9F6C601F4
:10032000DDDE83E0C0982FEF30E792E021503040CF
:100330009040E1F700C00000A895C09A2FEF30E789
:1003400092E0215030409040E1F700C00000A895B5
:10035000815041F7D0E001C0C098C0E07ECF8091CD
:10036000730081FF7ACF8ED09FB7F894809173008D
:100370008D7F809373009FBF70CF1F93CF93DF93C8
:10038000182F20E030E0A9014A5A5F4FFA0184910A
:10039000811308C0F901EE0FFF1FE25EFF4F859148
:1003A00094912DC0181740F02F5F3F4F2C3131052D
:1003B00051F78FEF9FE723C0B901660F771FFB014D
:1003C000E25EFF4F85919491FB01E45EFF4FC59182
:1003D000D491FA016491F901EB5AFF4F249130E076
:1003E0008C1B9D0B70E0621B730B05D1CB01412F61
:1003F00050E0BA01621B730BEDD08C0F9D1FDF9193
:10040000CF911F9108952EE130E060E070E0F90196
:10041000459154914817590729F4FB01EA5AFF4FB7
:10042000849108958417950748F06F5F7F4F2E5F82
:100430003F4F6C31710559F78FEF0895F9014591E0
:1004400054919B0121503109F901EE0FFF1FE25E2B
:10045000FF4FA591B491FB01EA5AFF4F6491F90156
:10046000EA5AFF4FE4919C012A1B3B0BCA018A1BED
:100470009B0B70E06E1B7109BED0C901BCD08E2FE2
:10048000860F0895369A089582E087B986E186B985
:1004900013B880E184BB86B1886986B9F3CF1F9217
:1004A0000F920FB60F9211242F933F934F935F93A8
:1004B0006F937F938F939F93AF93BF93EF93FF932C
:1004C00024B135B180916D0090916E00A0916F00C4
:1004D000B0917000BC01CD01620F731F811D911D91
:1004E00060936D0070936E0080936F009093700026
:1004F00020916B0030916C002F5F3F4F30936C0068
:1005000020936B002F3F3105E1F0D8F024E030E07C
:1005100040E050E084D0309372002093710010923C
:100520006D0010926E0010926F0010927000109289
:100530006C0010926B008091730081608093730057
:1005400001C0369AFF91EF91BF91AF919F918F912A
:100550007F916F915F914F913F912F910F900FBEBF
:100560000F901F90189512BE8EE489BD82E08ABD5F
:1005700085E083BF89B7806189BF08951F920F927C
:100580000FB60F9211248F939F9380916A008F5F13
:100590008A3018F480936A0016C010926A00809125
:1005A0007300826080937300809169008F5F8093F5
:1005B0006900853040F09091730084E08927809332
:1005C0007300109269009F918F910F900FBE0F9052
:1005D0001F9018950024552704C0080E591F880F36
:1005E000991F009729F076956795B8F37105B9F7CB
:1005F000802D952F0895AA1BBB1B51E107C0AA1F90
:10060000BB1FA617B70710F0A61BB70B881F991FB3
:100610005A95A9F780959095BC01CD010895052EB6
:1006200097FB16F400940FD057FD05D014D007FCAB
:1006300002D046F408C050954095309521953F4F23
:100640004F4F5F4F089590958095709561957F4FBE
:100650008F4F9F4F0895A1E21A2EAA1BBB1BFD01CD
:100660000DC0AA1FBB1FEE1FFF1FA217B307E40791
:10067000F50720F0A21BB30BE40BF50B661F771FE9
:10068000881F991F1A9469F76095709580959095C9
:100690009B01AC01BD01CF010895E199FECF9FBB45
:1006A0008EBBE09A99278DB30895A8E1B0E042E0AF
:1006B00050E013C0262FE199FECF1CBA9FBB8EBB22
:1006C0002DBB0FB6F894E29AE19A0FBE01960895F9
:1006D000F1DF272FF0CFDC01CB01FC01E199FECF48
:1006E00006C0FFBBEEBBE09A31960DB20D924150B1
:0A06F0005040B8F70895F894FFCFCA
:0406FA0001190400DE
:00000001FF
